{
  "_format": "hh-sol-artifact-1",
  "contractName": "Spaceshot",
  "sourceName": "contracts/Spaceshot.sol",
  "abi": [
    {
      "inputs": [],
      "stateMutability": "payable",
      "type": "constructor"
    },
    {
      "anonymous": false,
      "inputs": [
        {
          "indexed": false,
          "internalType": "uint256",
          "name": "_amount",
          "type": "uint256"
        },
        {
          "indexed": false,
          "internalType": "uint256",
          "name": "_gameMultiplier",
          "type": "uint256"
        },
        {
          "indexed": false,
          "internalType": "uint256",
          "name": "_multiplier",
          "type": "uint256"
        },
        {
          "indexed": false,
          "internalType": "uint256",
          "name": "profit",
          "type": "uint256"
        }
      ],
      "name": "returnResult",
      "type": "event"
    },
    {
      "inputs": [
        {
          "internalType": "address",
          "name": "",
          "type": "address"
        }
      ],
      "name": "balances",
      "outputs": [
        {
          "internalType": "uint256",
          "name": "",
          "type": "uint256"
        }
      ],
      "stateMutability": "view",
      "type": "function"
    },
    {
      "inputs": [
        {
          "internalType": "address",
          "name": "player",
          "type": "address"
        },
        {
          "internalType": "uint256",
          "name": "amount",
          "type": "uint256"
        },
        {
          "internalType": "uint256",
          "name": "multiplier",
          "type": "uint256"
        },
        {
          "internalType": "uint256",
          "name": "gameMultiplier",
          "type": "uint256"
        }
      ],
      "name": "betAmount",
      "outputs": [],
      "stateMutability": "nonpayable",
      "type": "function"
    },
    {
      "inputs": [],
      "name": "deposit",
      "outputs": [
        {
          "internalType": "uint256",
          "name": "",
          "type": "uint256"
        }
      ],
      "stateMutability": "payable",
      "type": "function"
    },
    {
      "inputs": [
        {
          "internalType": "address",
          "name": "player",
          "type": "address"
        }
      ],
      "name": "getBalance",
      "outputs": [
        {
          "internalType": "uint256",
          "name": "",
          "type": "uint256"
        }
      ],
      "stateMutability": "view",
      "type": "function"
    },
    {
      "inputs": [],
      "name": "getGameBalance",
      "outputs": [
        {
          "internalType": "uint256",
          "name": "",
          "type": "uint256"
        }
      ],
      "stateMutability": "view",
      "type": "function"
    },
    {
      "inputs": [],
      "name": "getPlayerCount",
      "outputs": [
        {
          "internalType": "uint256",
          "name": "",
          "type": "uint256"
        }
      ],
      "stateMutability": "view",
      "type": "function"
    },
    {
      "inputs": [],
      "name": "getTimeStamp",
      "outputs": [
        {
          "internalType": "uint256",
          "name": "",
          "type": "uint256"
        }
      ],
      "stateMutability": "view",
      "type": "function"
    },
    {
      "inputs": [],
      "name": "playersCount",
      "outputs": [
        {
          "internalType": "uint256",
          "name": "",
          "type": "uint256"
        }
      ],
      "stateMutability": "view",
      "type": "function"
    },
    {
      "inputs": [],
      "name": "transactions",
      "outputs": [
        {
          "internalType": "uint256",
          "name": "",
          "type": "uint256"
        }
      ],
      "stateMutability": "view",
      "type": "function"
    },
    {
      "inputs": [
        {
          "internalType": "uint256",
          "name": "_amount",
          "type": "uint256"
        }
      ],
      "name": "withdraw",
      "outputs": [],
      "stateMutability": "payable",
      "type": "function"
    },
    {
      "inputs": [],
      "name": "withdrawContract",
      "outputs": [],
      "stateMutability": "payable",
      "type": "function"
    }
  ],
  "bytecode": "0x608060405233600360006101000a81548173ffffffffffffffffffffffffffffffffffffffff021916908373ffffffffffffffffffffffffffffffffffffffff160217905550610c40806100546000396000f3fe60806040526004361061009c5760003560e01c8063c2e5220611610064578063c2e522061461015a578063c574d15614610185578063d0e30db0146101b0578063da235b22146101ce578063f8b2cb4f146101f9578063fc6ca29f146102365761009c565b806318015191146100a157806327e235e3146100cc5780632e1a7d4d146101095780639da9df3e14610125578063a3f67d6d1461012f575b600080fd5b3480156100ad57600080fd5b506100b661025f565b6040516100c391906107a2565b60405180910390f35b3480156100d857600080fd5b506100f360048036038101906100ee9190610820565b610265565b60405161010091906107a2565b60405180910390f35b610123600480360381019061011e9190610879565b61027d565b005b61012d6103a3565b005b34801561013b57600080fd5b5061014461049e565b60405161015191906107a2565b60405180910390f35b34801561016657600080fd5b5061016f6104a4565b60405161017c91906107a2565b60405180910390f35b34801561019157600080fd5b5061019a6104ae565b6040516101a791906107a2565b60405180910390f35b6101b86104b6565b6040516101c591906107a2565b60405180910390f35b3480156101da57600080fd5b506101e3610551565b6040516101f091906107a2565b60405180910390f35b34801561020557600080fd5b50610220600480360381019061021b9190610820565b610559565b60405161022d91906107a2565b60405180910390f35b34801561024257600080fd5b5061025d600480360381019061025891906108a6565b6105a1565b005b60025481565b60006020528060005260406000206000915090505481565b6000339050816000803373ffffffffffffffffffffffffffffffffffffffff1673ffffffffffffffffffffffffffffffffffffffff168152602001908152602001600020541015610303576040517f08c379a00000000000000000000000000000000000000000000000000000000081526004016102fa9061096a565b60405180910390fd5b816000803373ffffffffffffffffffffffffffffffffffffffff1673ffffffffffffffffffffffffffffffffffffffff168152602001908152602001600020600082825461035191906109b9565b925050819055508073ffffffffffffffffffffffffffffffffffffffff166108fc839081150290604051600060405180830381858888f1935050505015801561039e573d6000803e3d6000fd5b505050565b600360009054906101000a900473ffffffffffffffffffffffffffffffffffffffff1673ffffffffffffffffffffffffffffffffffffffff163373ffffffffffffffffffffffffffffffffffffffff1614610433576040517f08c379a000000000000000000000000000000000000000000000000000000000815260040161042a90610a39565b60405180910390fd5b600360009054906101000a900473ffffffffffffffffffffffffffffffffffffffff1673ffffffffffffffffffffffffffffffffffffffff166108fc479081150290604051600060405180830381858888f1935050505015801561049b573d6000803e3d6000fd5b50565b60015481565b6000600154905090565b600047905090565b6000346000803373ffffffffffffffffffffffffffffffffffffffff1673ffffffffffffffffffffffffffffffffffffffff16815260200190815260200160002060008282546105069190610a59565b925050819055506000803373ffffffffffffffffffffffffffffffffffffffff1673ffffffffffffffffffffffffffffffffffffffff16815260200190815260200160002054905090565b600042905090565b60008060008373ffffffffffffffffffffffffffffffffffffffff1673ffffffffffffffffffffffffffffffffffffffff168152602001908152602001600020549050919050565b826000808673ffffffffffffffffffffffffffffffffffffffff1673ffffffffffffffffffffffffffffffffffffffff168152602001908152602001600020541015610622576040517f08c379a000000000000000000000000000000000000000000000000000000000815260040161061990610ad9565b60405180910390fd5b8082116106dc57600082846106379190610af9565b9050806000808773ffffffffffffffffffffffffffffffffffffffff1673ffffffffffffffffffffffffffffffffffffffff16815260200190815260200160002060008282546106879190610a59565b925050819055507fce459d636f941bab370615c8dd553d81d8c4ed2db02de73c562673d12fb820c984838586886106be9190610af9565b6040516106ce9493929190610b3b565b60405180910390a150610783565b670de0b6b3a7640000836106f09190610af9565b6000808673ffffffffffffffffffffffffffffffffffffffff1673ffffffffffffffffffffffffffffffffffffffff168152602001908152602001600020600082825461073d91906109b9565b925050819055507fce459d636f941bab370615c8dd553d81d8c4ed2db02de73c562673d12fb820c9838284600060405161077a9493929190610bc5565b60405180910390a15b50505050565b6000819050919050565b61079c81610789565b82525050565b60006020820190506107b76000830184610793565b92915050565b600080fd5b600073ffffffffffffffffffffffffffffffffffffffff82169050919050565b60006107ed826107c2565b9050919050565b6107fd816107e2565b811461080857600080fd5b50565b60008135905061081a816107f4565b92915050565b600060208284031215610836576108356107bd565b5b60006108448482850161080b565b91505092915050565b61085681610789565b811461086157600080fd5b50565b6000813590506108738161084d565b92915050565b60006020828403121561088f5761088e6107bd565b5b600061089d84828501610864565b91505092915050565b600080600080608085870312156108c0576108bf6107bd565b5b60006108ce8782880161080b565b94505060206108df87828801610864565b93505060406108f087828801610864565b925050606061090187828801610864565b91505092959194509250565b600082825260208201905092915050565b7f496e73756666696369656e742046756e64730000000000000000000000000000600082015250565b600061095460128361090d565b915061095f8261091e565b602082019050919050565b6000602082019050818103600083015261098381610947565b9050919050565b7f4e487b7100000000000000000000000000000000000000000000000000000000600052601160045260246000fd5b60006109c482610789565b91506109cf83610789565b92508282039050818111156109e7576109e661098a565b5b92915050565b7f4f6e6c79206f776e65722063616e2077697468647261772066756e6473000000600082015250565b6000610a23601d8361090d565b9150610a2e826109ed565b602082019050919050565b60006020820190508181036000830152610a5281610a16565b9050919050565b6000610a6482610789565b9150610a6f83610789565b9250828201905080821115610a8757610a8661098a565b5b92915050565b7f496e73756666656369656e742046756e64730000000000000000000000000000600082015250565b6000610ac360128361090d565b9150610ace82610a8d565b602082019050919050565b60006020820190508181036000830152610af281610ab6565b9050919050565b6000610b0482610789565b9150610b0f83610789565b9250828202610b1d81610789565b91508282048414831517610b3457610b3361098a565b5b5092915050565b6000608082019050610b506000830187610793565b610b5d6020830186610793565b610b6a6040830185610793565b610b776060830184610793565b95945050505050565b6000819050919050565b6000819050919050565b6000610baf610baa610ba584610b80565b610b8a565b610789565b9050919050565b610bbf81610b94565b82525050565b6000608082019050610bda6000830187610793565b610be76020830186610793565b610bf46040830185610793565b610c016060830184610bb6565b9594505050505056fea264697066735822122043ca55213b79dc51cf608d5eb7c0de1fa0f2005fc3e0cac828868aa3e4f083e364736f6c63430008110033",
  "linkReferences": {},
  "deployedLinkReferences": {}
}