{
  "_format": "hh-sol-artifact-1",
  "contractName": "Spaceshot",
  "sourceName": "contracts/Spaceshot.sol",
  "abi": [
    {
      "inputs": [],
      "stateMutability": "payable",
      "type": "constructor"
    },
    {
      "anonymous": false,
      "inputs": [
        {
          "indexed": false,
          "internalType": "uint256",
          "name": "_amount",
          "type": "uint256"
        },
        {
          "indexed": false,
          "internalType": "uint256",
          "name": "_gameMultiplier",
          "type": "uint256"
        },
        {
          "indexed": false,
          "internalType": "uint256",
          "name": "_multiplier",
          "type": "uint256"
        },
        {
          "indexed": false,
          "internalType": "uint256",
          "name": "profit",
          "type": "uint256"
        }
      ],
      "name": "returnResult",
      "type": "event"
    },
    {
      "inputs": [
        {
          "internalType": "address",
          "name": "",
          "type": "address"
        }
      ],
      "name": "balances",
      "outputs": [
        {
          "internalType": "uint256",
          "name": "",
          "type": "uint256"
        }
      ],
      "stateMutability": "view",
      "type": "function"
    },
    {
      "inputs": [
        {
          "internalType": "address",
          "name": "player",
          "type": "address"
        },
        {
          "internalType": "uint256",
          "name": "amount",
          "type": "uint256"
        },
        {
          "internalType": "uint256",
          "name": "multiplier",
          "type": "uint256"
        },
        {
          "internalType": "uint256",
          "name": "gameMultiplier",
          "type": "uint256"
        }
      ],
      "name": "betAmount",
      "outputs": [],
      "stateMutability": "nonpayable",
      "type": "function"
    },
    {
      "inputs": [],
      "name": "deposit",
      "outputs": [
        {
          "internalType": "uint256",
          "name": "",
          "type": "uint256"
        }
      ],
      "stateMutability": "payable",
      "type": "function"
    },
    {
      "inputs": [
        {
          "internalType": "address",
          "name": "player",
          "type": "address"
        }
      ],
      "name": "getBalance",
      "outputs": [
        {
          "internalType": "uint256",
          "name": "",
          "type": "uint256"
        }
      ],
      "stateMutability": "view",
      "type": "function"
    },
    {
      "inputs": [],
      "name": "getGameBalance",
      "outputs": [
        {
          "internalType": "uint256",
          "name": "",
          "type": "uint256"
        }
      ],
      "stateMutability": "view",
      "type": "function"
    },
    {
      "inputs": [],
      "name": "getPlayerCount",
      "outputs": [
        {
          "internalType": "uint256",
          "name": "",
          "type": "uint256"
        }
      ],
      "stateMutability": "view",
      "type": "function"
    },
    {
      "inputs": [],
      "name": "getTimeStamp",
      "outputs": [
        {
          "internalType": "uint256",
          "name": "",
          "type": "uint256"
        }
      ],
      "stateMutability": "view",
      "type": "function"
    },
    {
      "inputs": [],
      "name": "playersCount",
      "outputs": [
        {
          "internalType": "uint256",
          "name": "",
          "type": "uint256"
        }
      ],
      "stateMutability": "view",
      "type": "function"
    },
    {
      "inputs": [],
      "name": "transactions",
      "outputs": [
        {
          "internalType": "uint256",
          "name": "",
          "type": "uint256"
        }
      ],
      "stateMutability": "view",
      "type": "function"
    },
    {
      "inputs": [
        {
          "internalType": "uint256",
          "name": "_amount",
          "type": "uint256"
        },
        {
          "internalType": "address",
          "name": "player",
          "type": "address"
        }
      ],
      "name": "withdraw",
      "outputs": [],
      "stateMutability": "payable",
      "type": "function"
    },
    {
      "inputs": [],
      "name": "withdrawContract",
      "outputs": [],
      "stateMutability": "payable",
      "type": "function"
    }
  ],
  "bytecode": "0x608060405233600360006101000a81548173ffffffffffffffffffffffffffffffffffffffff021916908373ffffffffffffffffffffffffffffffffffffffff160217905550610c53806100546000396000f3fe60806040526004361061009b5760003560e01c8063c2e5220611610064578063c2e5220614610159578063c574d15614610184578063d0e30db0146101af578063da235b22146101cd578063f8b2cb4f146101f8578063fc6ca29f146102355761009b565b8062f714ce146100a057806318015191146100bc57806327e235e3146100e75780639da9df3e14610124578063a3f67d6d1461012e575b600080fd5b6100ba60048036038101906100b59190610822565b61025e565b005b3480156100c857600080fd5b506100d1610385565b6040516100de9190610871565b60405180910390f35b3480156100f357600080fd5b5061010e6004803603810190610109919061088c565b61038b565b60405161011b9190610871565b60405180910390f35b61012c6103a3565b005b34801561013a57600080fd5b5061014361049e565b6040516101509190610871565b60405180910390f35b34801561016557600080fd5b5061016e6104a4565b60405161017b9190610871565b60405180910390f35b34801561019057600080fd5b506101996104ae565b6040516101a69190610871565b60405180910390f35b6101b76104b6565b6040516101c49190610871565b60405180910390f35b3480156101d957600080fd5b506101e2610551565b6040516101ef9190610871565b60405180910390f35b34801561020457600080fd5b5061021f600480360381019061021a919061088c565b610559565b60405161022c9190610871565b60405180910390f35b34801561024157600080fd5b5061025c600480360381019061025791906108b9565b6105a1565b005b6000819050826000808473ffffffffffffffffffffffffffffffffffffffff1673ffffffffffffffffffffffffffffffffffffffff1681526020019081526020016000205410156102e4576040517f08c379a00000000000000000000000000000000000000000000000000000000081526004016102db9061097d565b60405180910390fd5b826000808473ffffffffffffffffffffffffffffffffffffffff1673ffffffffffffffffffffffffffffffffffffffff168152602001908152602001600020600082825461033291906109cc565b925050819055508073ffffffffffffffffffffffffffffffffffffffff166108fc849081150290604051600060405180830381858888f1935050505015801561037f573d6000803e3d6000fd5b50505050565b60025481565b60006020528060005260406000206000915090505481565b600360009054906101000a900473ffffffffffffffffffffffffffffffffffffffff1673ffffffffffffffffffffffffffffffffffffffff163373ffffffffffffffffffffffffffffffffffffffff1614610433576040517f08c379a000000000000000000000000000000000000000000000000000000000815260040161042a90610a4c565b60405180910390fd5b600360009054906101000a900473ffffffffffffffffffffffffffffffffffffffff1673ffffffffffffffffffffffffffffffffffffffff166108fc479081150290604051600060405180830381858888f1935050505015801561049b573d6000803e3d6000fd5b50565b60015481565b6000600154905090565b600047905090565b6000346000803373ffffffffffffffffffffffffffffffffffffffff1673ffffffffffffffffffffffffffffffffffffffff16815260200190815260200160002060008282546105069190610a6c565b925050819055506000803373ffffffffffffffffffffffffffffffffffffffff1673ffffffffffffffffffffffffffffffffffffffff16815260200190815260200160002054905090565b600042905090565b60008060008373ffffffffffffffffffffffffffffffffffffffff1673ffffffffffffffffffffffffffffffffffffffff168152602001908152602001600020549050919050565b826000808673ffffffffffffffffffffffffffffffffffffffff1673ffffffffffffffffffffffffffffffffffffffff168152602001908152602001600020541015610622576040517f08c379a000000000000000000000000000000000000000000000000000000000815260040161061990610aec565b60405180910390fd5b8082116106dc57600082846106379190610b0c565b9050806000808773ffffffffffffffffffffffffffffffffffffffff1673ffffffffffffffffffffffffffffffffffffffff16815260200190815260200160002060008282546106879190610a6c565b925050819055507fce459d636f941bab370615c8dd553d81d8c4ed2db02de73c562673d12fb820c984838586886106be9190610b0c565b6040516106ce9493929190610b4e565b60405180910390a150610783565b670de0b6b3a7640000836106f09190610b0c565b6000808673ffffffffffffffffffffffffffffffffffffffff1673ffffffffffffffffffffffffffffffffffffffff168152602001908152602001600020600082825461073d91906109cc565b925050819055507fce459d636f941bab370615c8dd553d81d8c4ed2db02de73c562673d12fb820c9838284600060405161077a9493929190610bd8565b60405180910390a15b50505050565b600080fd5b6000819050919050565b6107a18161078e565b81146107ac57600080fd5b50565b6000813590506107be81610798565b92915050565b600073ffffffffffffffffffffffffffffffffffffffff82169050919050565b60006107ef826107c4565b9050919050565b6107ff816107e4565b811461080a57600080fd5b50565b60008135905061081c816107f6565b92915050565b6000806040838503121561083957610838610789565b5b6000610847858286016107af565b92505060206108588582860161080d565b9150509250929050565b61086b8161078e565b82525050565b60006020820190506108866000830184610862565b92915050565b6000602082840312156108a2576108a1610789565b5b60006108b08482850161080d565b91505092915050565b600080600080608085870312156108d3576108d2610789565b5b60006108e18782880161080d565b94505060206108f2878288016107af565b9350506040610903878288016107af565b9250506060610914878288016107af565b91505092959194509250565b600082825260208201905092915050565b7f496e73756666696369656e742046756e64730000000000000000000000000000600082015250565b6000610967601283610920565b915061097282610931565b602082019050919050565b600060208201905081810360008301526109968161095a565b9050919050565b7f4e487b7100000000000000000000000000000000000000000000000000000000600052601160045260246000fd5b60006109d78261078e565b91506109e28361078e565b92508282039050818111156109fa576109f961099d565b5b92915050565b7f4f6e6c79206f776e65722063616e2077697468647261772066756e6473000000600082015250565b6000610a36601d83610920565b9150610a4182610a00565b602082019050919050565b60006020820190508181036000830152610a6581610a29565b9050919050565b6000610a778261078e565b9150610a828361078e565b9250828201905080821115610a9a57610a9961099d565b5b92915050565b7f496e73756666656369656e742046756e64730000000000000000000000000000600082015250565b6000610ad6601283610920565b9150610ae182610aa0565b602082019050919050565b60006020820190508181036000830152610b0581610ac9565b9050919050565b6000610b178261078e565b9150610b228361078e565b9250828202610b308161078e565b91508282048414831517610b4757610b4661099d565b5b5092915050565b6000608082019050610b636000830187610862565b610b706020830186610862565b610b7d6040830185610862565b610b8a6060830184610862565b95945050505050565b6000819050919050565b6000819050919050565b6000610bc2610bbd610bb884610b93565b610b9d565b61078e565b9050919050565b610bd281610ba7565b82525050565b6000608082019050610bed6000830187610862565b610bfa6020830186610862565b610c076040830185610862565b610c146060830184610bc9565b9594505050505056fea2646970667358221220bf5f42d33747f0d346bbc7f85d71c5fc8b939a0dd12b7a9c265e61e548144ac564736f6c63430008110033",
  "linkReferences": {},
  "deployedLinkReferences": {}
}