{
  "_format": "hh-sol-artifact-1",
  "contractName": "Spaceshot",
  "sourceName": "contracts/Spaceshot.sol",
  "abi": [
    {
      "inputs": [],
      "stateMutability": "payable",
      "type": "constructor"
    },
    {
      "anonymous": false,
      "inputs": [
        {
          "indexed": false,
          "internalType": "uint256",
          "name": "_amount",
          "type": "uint256"
        },
        {
          "indexed": false,
          "internalType": "uint256",
          "name": "_gameMultiplier",
          "type": "uint256"
        },
        {
          "indexed": false,
          "internalType": "uint256",
          "name": "_multiplier",
          "type": "uint256"
        },
        {
          "indexed": false,
          "internalType": "uint256",
          "name": "profit",
          "type": "uint256"
        }
      ],
      "name": "returnResult",
      "type": "event"
    },
    {
      "inputs": [
        {
          "internalType": "address",
          "name": "",
          "type": "address"
        }
      ],
      "name": "balances",
      "outputs": [
        {
          "internalType": "uint256",
          "name": "",
          "type": "uint256"
        }
      ],
      "stateMutability": "view",
      "type": "function"
    },
    {
      "inputs": [
        {
          "internalType": "address",
          "name": "player",
          "type": "address"
        },
        {
          "internalType": "uint256",
          "name": "amount",
          "type": "uint256"
        },
        {
          "internalType": "uint256",
          "name": "multiplier",
          "type": "uint256"
        },
        {
          "internalType": "uint256",
          "name": "gameMultiplier",
          "type": "uint256"
        }
      ],
      "name": "betAmount",
      "outputs": [],
      "stateMutability": "nonpayable",
      "type": "function"
    },
    {
      "inputs": [],
      "name": "deposit",
      "outputs": [],
      "stateMutability": "payable",
      "type": "function"
    },
    {
      "inputs": [
        {
          "internalType": "address",
          "name": "player",
          "type": "address"
        }
      ],
      "name": "getBalance",
      "outputs": [
        {
          "internalType": "uint256",
          "name": "",
          "type": "uint256"
        }
      ],
      "stateMutability": "view",
      "type": "function"
    },
    {
      "inputs": [],
      "name": "getGameBalance",
      "outputs": [
        {
          "internalType": "uint256",
          "name": "",
          "type": "uint256"
        }
      ],
      "stateMutability": "view",
      "type": "function"
    },
    {
      "inputs": [],
      "name": "getPlayerCount",
      "outputs": [
        {
          "internalType": "uint256",
          "name": "",
          "type": "uint256"
        }
      ],
      "stateMutability": "view",
      "type": "function"
    },
    {
      "inputs": [],
      "name": "getTimeStamp",
      "outputs": [
        {
          "internalType": "uint256",
          "name": "",
          "type": "uint256"
        }
      ],
      "stateMutability": "view",
      "type": "function"
    },
    {
      "inputs": [],
      "name": "playersCount",
      "outputs": [
        {
          "internalType": "uint256",
          "name": "",
          "type": "uint256"
        }
      ],
      "stateMutability": "view",
      "type": "function"
    },
    {
      "inputs": [],
      "name": "transactions",
      "outputs": [
        {
          "internalType": "uint256",
          "name": "",
          "type": "uint256"
        }
      ],
      "stateMutability": "view",
      "type": "function"
    },
    {
      "inputs": [
        {
          "internalType": "uint256",
          "name": "_amount",
          "type": "uint256"
        },
        {
          "internalType": "address",
          "name": "player",
          "type": "address"
        }
      ],
      "name": "withdraw",
      "outputs": [],
      "stateMutability": "payable",
      "type": "function"
    },
    {
      "inputs": [],
      "name": "withdrawContract",
      "outputs": [],
      "stateMutability": "payable",
      "type": "function"
    }
  ],
  "bytecode": "0x608060405233600360006101000a81548173ffffffffffffffffffffffffffffffffffffffff021916908373ffffffffffffffffffffffffffffffffffffffff160217905550610bfb806100546000396000f3fe60806040526004361061009b5760003560e01c8063c2e5220611610064578063c2e5220614610159578063c574d15614610184578063d0e30db0146101af578063da235b22146101b9578063f8b2cb4f146101e4578063fc6ca29f146102215761009b565b8062f714ce146100a057806318015191146100bc57806327e235e3146100e75780639da9df3e14610124578063a3f67d6d1461012e575b600080fd5b6100ba60048036038101906100b591906107ca565b61024a565b005b3480156100c857600080fd5b506100d1610371565b6040516100de9190610819565b60405180910390f35b3480156100f357600080fd5b5061010e60048036038101906101099190610834565b610377565b60405161011b9190610819565b60405180910390f35b61012c61038f565b005b34801561013a57600080fd5b5061014361048a565b6040516101509190610819565b60405180910390f35b34801561016557600080fd5b5061016e610490565b60405161017b9190610819565b60405180910390f35b34801561019057600080fd5b5061019961049a565b6040516101a69190610819565b60405180910390f35b6101b76104a2565b005b3480156101c557600080fd5b506101ce6104f9565b6040516101db9190610819565b60405180910390f35b3480156101f057600080fd5b5061020b60048036038101906102069190610834565b610501565b6040516102189190610819565b60405180910390f35b34801561022d57600080fd5b5061024860048036038101906102439190610861565b610549565b005b6000819050826000808473ffffffffffffffffffffffffffffffffffffffff1673ffffffffffffffffffffffffffffffffffffffff1681526020019081526020016000205410156102d0576040517f08c379a00000000000000000000000000000000000000000000000000000000081526004016102c790610925565b60405180910390fd5b826000808473ffffffffffffffffffffffffffffffffffffffff1673ffffffffffffffffffffffffffffffffffffffff168152602001908152602001600020600082825461031e9190610974565b925050819055508073ffffffffffffffffffffffffffffffffffffffff166108fc849081150290604051600060405180830381858888f1935050505015801561036b573d6000803e3d6000fd5b50505050565b60025481565b60006020528060005260406000206000915090505481565b600360009054906101000a900473ffffffffffffffffffffffffffffffffffffffff1673ffffffffffffffffffffffffffffffffffffffff163373ffffffffffffffffffffffffffffffffffffffff161461041f576040517f08c379a0000000000000000000000000000000000000000000000000000000008152600401610416906109f4565b60405180910390fd5b600360009054906101000a900473ffffffffffffffffffffffffffffffffffffffff1673ffffffffffffffffffffffffffffffffffffffff166108fc479081150290604051600060405180830381858888f19350505050158015610487573d6000803e3d6000fd5b50565b60015481565b6000600154905090565b600047905090565b346000803373ffffffffffffffffffffffffffffffffffffffff1673ffffffffffffffffffffffffffffffffffffffff16815260200190815260200160002060008282546104f09190610a14565b92505081905550565b600042905090565b60008060008373ffffffffffffffffffffffffffffffffffffffff1673ffffffffffffffffffffffffffffffffffffffff168152602001908152602001600020549050919050565b826000808673ffffffffffffffffffffffffffffffffffffffff1673ffffffffffffffffffffffffffffffffffffffff1681526020019081526020016000205410156105ca576040517f08c379a00000000000000000000000000000000000000000000000000000000081526004016105c190610a94565b60405180910390fd5b80821161068457600082846105df9190610ab4565b9050806000808773ffffffffffffffffffffffffffffffffffffffff1673ffffffffffffffffffffffffffffffffffffffff168152602001908152602001600020600082825461062f9190610a14565b925050819055507fce459d636f941bab370615c8dd553d81d8c4ed2db02de73c562673d12fb820c984838586886106669190610ab4565b6040516106769493929190610af6565b60405180910390a15061072b565b670de0b6b3a7640000836106989190610ab4565b6000808673ffffffffffffffffffffffffffffffffffffffff1673ffffffffffffffffffffffffffffffffffffffff16815260200190815260200160002060008282546106e59190610974565b925050819055507fce459d636f941bab370615c8dd553d81d8c4ed2db02de73c562673d12fb820c983828460006040516107229493929190610b80565b60405180910390a15b50505050565b600080fd5b6000819050919050565b61074981610736565b811461075457600080fd5b50565b60008135905061076681610740565b92915050565b600073ffffffffffffffffffffffffffffffffffffffff82169050919050565b60006107978261076c565b9050919050565b6107a78161078c565b81146107b257600080fd5b50565b6000813590506107c48161079e565b92915050565b600080604083850312156107e1576107e0610731565b5b60006107ef85828601610757565b9250506020610800858286016107b5565b9150509250929050565b61081381610736565b82525050565b600060208201905061082e600083018461080a565b92915050565b60006020828403121561084a57610849610731565b5b6000610858848285016107b5565b91505092915050565b6000806000806080858703121561087b5761087a610731565b5b6000610889878288016107b5565b945050602061089a87828801610757565b93505060406108ab87828801610757565b92505060606108bc87828801610757565b91505092959194509250565b600082825260208201905092915050565b7f496e73756666696369656e742046756e64730000000000000000000000000000600082015250565b600061090f6012836108c8565b915061091a826108d9565b602082019050919050565b6000602082019050818103600083015261093e81610902565b9050919050565b7f4e487b7100000000000000000000000000000000000000000000000000000000600052601160045260246000fd5b600061097f82610736565b915061098a83610736565b92508282039050818111156109a2576109a1610945565b5b92915050565b7f4f6e6c79206f776e65722063616e2077697468647261772066756e6473000000600082015250565b60006109de601d836108c8565b91506109e9826109a8565b602082019050919050565b60006020820190508181036000830152610a0d816109d1565b9050919050565b6000610a1f82610736565b9150610a2a83610736565b9250828201905080821115610a4257610a41610945565b5b92915050565b7f496e73756666656369656e742046756e64730000000000000000000000000000600082015250565b6000610a7e6012836108c8565b9150610a8982610a48565b602082019050919050565b60006020820190508181036000830152610aad81610a71565b9050919050565b6000610abf82610736565b9150610aca83610736565b9250828202610ad881610736565b91508282048414831517610aef57610aee610945565b5b5092915050565b6000608082019050610b0b600083018761080a565b610b18602083018661080a565b610b25604083018561080a565b610b32606083018461080a565b95945050505050565b6000819050919050565b6000819050919050565b6000610b6a610b65610b6084610b3b565b610b45565b610736565b9050919050565b610b7a81610b4f565b82525050565b6000608082019050610b95600083018761080a565b610ba2602083018661080a565b610baf604083018561080a565b610bbc6060830184610b71565b9594505050505056fea26469706673582212201f1a50f9976bf22c33b6eccc1ca2b40b4461f5e54750b71ec8366f12eaeec91f64736f6c63430008110033",
  "linkReferences": {},
  "deployedLinkReferences": {}
}